{
  "contractName": "Referendum",
  "abi": [
    {
      "inputs": [
        {
          "internalType": "string",
          "name": "_subject",
          "type": "string"
        }
      ],
      "payable": false,
      "stateMutability": "nonpayable",
      "type": "constructor"
    },
    {
      "anonymous": false,
      "inputs": [
        {
          "indexed": false,
          "internalType": "address",
          "name": "voter",
          "type": "address"
        }
      ],
      "name": "HasVoted",
      "type": "event"
    },
    {
      "constant": true,
      "inputs": [],
      "name": "subject",
      "outputs": [
        {
          "internalType": "string",
          "name": "",
          "type": "string"
        }
      ],
      "payable": false,
      "stateMutability": "view",
      "type": "function"
    },
    {
      "constant": false,
      "inputs": [],
      "name": "sayYes",
      "outputs": [
        {
          "internalType": "bool",
          "name": "",
          "type": "bool"
        }
      ],
      "payable": false,
      "stateMutability": "nonpayable",
      "type": "function"
    },
    {
      "constant": false,
      "inputs": [],
      "name": "sayNo",
      "outputs": [
        {
          "internalType": "bool",
          "name": "",
          "type": "bool"
        }
      ],
      "payable": false,
      "stateMutability": "nonpayable",
      "type": "function"
    },
    {
      "constant": true,
      "inputs": [],
      "name": "getResult",
      "outputs": [
        {
          "internalType": "uint256",
          "name": "",
          "type": "uint256"
        },
        {
          "internalType": "uint256",
          "name": "",
          "type": "uint256"
        },
        {
          "internalType": "uint256",
          "name": "",
          "type": "uint256"
        }
      ],
      "payable": false,
      "stateMutability": "view",
      "type": "function"
    },
    {
      "constant": false,
      "inputs": [],
      "name": "kill",
      "outputs": [],
      "payable": false,
      "stateMutability": "nonpayable",
      "type": "function"
    }
  ],
  "bytecode": "0x608060405234801561001057600080fd5b506040516107123803806107128339818101604052602081101561003357600080fd5b810190808051604051939291908464010000000082111561005357600080fd5b8382019150602082018581111561006957600080fd5b825186600182028301116401000000008211171561008657600080fd5b8083526020830192505050908051906020019080838360005b838110156100ba57808201518184015260208101905061009f565b50505050905090810190601f1680156100e75780820380516001836020036101000a031916815260200191505b50604052505050806004908051906020019061010492919061018d565b5033600560006101000a81548173ffffffffffffffffffffffffffffffffffffffff021916908373ffffffffffffffffffffffffffffffffffffffff160217905550604051806060016040528060008152602001600081526020016000815250600160008201518160000155602082015181600101556040820151816002015590505050610232565b828054600181600116156101000203166002900490600052602060002090601f016020900481019282601f106101ce57805160ff19168380011785556101fc565b828001600101855582156101fc579182015b828111156101fb5782518255916020019190600101906101e0565b5b509050610209919061020d565b5090565b61022f91905b8082111561022b576000816000905550600101610213565b5090565b90565b6104d1806102416000396000f3fe608060405234801561001057600080fd5b50600436106100575760003560e01c80630a59a98c1461005c57806341c0e1b5146100df5780639bee3365146100e9578063ba95b2351461010b578063de2927891461012d575b600080fd5b610064610159565b6040518080602001828103825283818151815260200191508051906020019080838360005b838110156100a4578082015181840152602081019050610089565b50505050905090810190601f1680156100d15780820380516001836020036101000a031916815260200191505b509250505060405180910390f35b6100e76101f7565b005b6100f161028a565b604051808215151515815260200191505060405180910390f35b61011361029b565b604051808215151515815260200191505060405180910390f35b6101356102ac565b60405180848152602001838152602001828152602001935050505060405180910390f35b60048054600181600116156101000203166002900480601f0160208091040260200160405190810160405280929190818152602001828054600181600116156101000203166002900480156101ef5780601f106101c4576101008083540402835291602001916101ef565b820191906000526020600020905b8154815290600101906020018083116101d257829003601f168201915b505050505081565b3373ffffffffffffffffffffffffffffffffffffffff16600560009054906101000a900473ffffffffffffffffffffffffffffffffffffffff1673ffffffffffffffffffffffffffffffffffffffff16141561028857600560009054906101000a900473ffffffffffffffffffffffffffffffffffffffff1673ffffffffffffffffffffffffffffffffffffffff16ff5b565b600061029660016102cd565b905090565b60006102a760006102cd565b905090565b60008060006001600001546001800154600160020154925092509250909192565b6000803390506000808273ffffffffffffffffffffffffffffffffffffffff1673ffffffffffffffffffffffffffffffffffffffff16815260200190815260200160002060000160009054906101000a900460ff1615610331576000915050610497565b821561035157600160000160008154809291906001019190505550610366565b60018001600081548092919060010191905055505b600160020160008154809291906001019190505550826000808373ffffffffffffffffffffffffffffffffffffffff1673ffffffffffffffffffffffffffffffffffffffff16815260200190815260200160002060000160016101000a81548160ff02191690831515021790555060016000808373ffffffffffffffffffffffffffffffffffffffff1673ffffffffffffffffffffffffffffffffffffffff16815260200190815260200160002060000160006101000a81548160ff0219169083151502179055507ff27464edc066dd688f4eb358358a61a7aa6bb29bae87378c38005b2b78a0d9cf81604051808273ffffffffffffffffffffffffffffffffffffffff1673ffffffffffffffffffffffffffffffffffffffff16815260200191505060405180910390a160019150505b91905056fea265627a7a72315820c7a44ce6e9da0ea94d0965794d21a3c1a92122492e93f48b7aeb43f81ca4a3fa64736f6c63430005100032",
  "source": "pragma solidity ^0.5.16;\r\n\r\ncontract Referendum {\r\n    struct Result {\r\n        uint yes;\r\n        uint no;\r\n        uint number;\r\n    }\r\n\r\n    struct Vote {\r\n        bool hasVoted;\r\n        bool answer;\r\n    }\r\n\r\n    mapping (address => Vote) votes;\r\n    Result result;\r\n    string public subject;\r\n    address payable owner;\r\n\r\n    constructor(string memory _subject) public {\r\n        subject = _subject;\r\n        owner = msg.sender;\r\n        result = Result(0, 0, 0);\r\n    }\r\n\r\n    event HasVoted(address voter);\r\n\r\n    function vote(bool answer) private returns (bool) {\r\n        address voter = msg.sender;\r\n        if(votes[voter].hasVoted) return false;\r\n        else {\r\n            if(answer) result.yes++;\r\n            else result.no++;\r\n            result.number++;\r\n            votes[voter].answer = answer;\r\n            votes[voter].hasVoted = true;\r\n            emit HasVoted(voter);\r\n            return true;\r\n        }\r\n    }\r\n\r\n    function sayYes() public returns(bool) {\r\n        return vote(true);\r\n    }\r\n\r\n    function sayNo() public returns(bool) {\r\n        return vote(false);\r\n    }\r\n\r\n    function getResult() public view returns(uint, uint, uint) {\r\n        return (result.yes, result.no, result.number);\r\n    }\r\n\r\n    function kill() public {\r\n        if(owner == msg.sender) {\r\n            selfdestruct(owner);\r\n        }\r\n    }\r\n}\r\n",
  "sourcePath": "/mnt/d/OneDrive/5B-DS/ethereum-evaluation/hands-on/ethereum-referendum/contracts/Referendum.sol",
  "compiler": {
    "name": "solc",
    "version": "0.5.16+commit.9c3226ce.Emscripten.clang"
  },
  "schemaVersion": "3.4.0",
  "updatedAt": "2021-05-04T18:57:11.971Z",
  "networkType": "ethereum",
  "devdoc": {
    "methods": {}
  },
  "userdoc": {
    "methods": {}
  }
}